:1000000004308A00C32C00004529D227D21E2526A1
:100010007515D027D422BD12CC3AAA060A00453065
:10002000840083130008031922280230F800F70126
:10003000F70B1828F80B17289730F700F70B1E2836
:10004000800B15288A110A122B2D48084A06803980
:10005000CC00C81F3028C709C809C70A0319C80A35
:10006000CA1F3728C909CA09C90A0319CA0A1030A0
:10007000CB00F701FA01C80CC70C031C452849083E
:10008000F7070318FA0A4A08FA07FA0CF70CF90CF2
:10009000F80CCB0B3B28CC1F5228F809F909F80AB9
:1000A0000319F90A08008E30F7004608F8004508E1
:1000B000F900FA01C61F6128F809F909F90A0319BC
:1000C000F80AF808031D6E287908F800F9010830CD
:1000D000F702F808031D6E28F70177280310F81BB4
:1000E0007528F90DF80DF7036E28C61FF8130800E0
:1000F0004608CD004A08CD06CD1F83280311031002
:10010000C61B0314B6284608CD004908CE00450892
:10011000CE0203199128CD1FB6280308013A8300A7
:10012000B6284A08CE004608CE0203199D28CD1FE6
:10013000B6280308013A8300B6284B08CE004708CA
:10014000CE020319A928CD1FB6280308013A83005F
:10015000B6284C08CE004808CE020319B528CD1F9A
:10016000B6280308013A8300B628031008003A08AD
:100170003802B4003908B5003B08031C3B0FB50238
:100180002908C8002808C7003508CA003408C90073
:1001900025207908AF007808AE0036083402F70051
:1001A0003508FA003708031C370FFA027708C50034
:1001B0007A08C6002B08C8002A08C7007A08CA00B7
:1001C0007708C90025207908B1007808B000B51F6C
:1001D000F4283508FE3C0318E02AFF3A031DF428F2
:1001E0003408513C0318E02AB51BFD28B508031D4F
:1001F000E02A3408AE3C031CE02A3508C600340867
:10020000C50053204308C8004208C7004108C60083
:100210004008C5007A08CC007908CB007808CA00ED
:100220007708C900450803198229CD004908031938
:100230008229CD07031823297F30CD02031C822990
:100240000319822927298130CD07031882294D08F7
:10025000F700F801F901FA014608D100D117470863
:10026000D0004808CF001830CD00CE014F1C5029D7
:100270004C08FA07031C4229F90A031D4229F80A0F
:100280000319CE174B08F907031C4929F80A03196B
:10029000CE174A08C700C7174708F8070318CE1734
:1002A000CE0DF80CF90CFA0CD10CD00CCF0C0310BD
:1002B000CD0B35290130F70703188229F81B672970
:1002C000D10DFA0DF90DF80DF70303198229D11F8D
:1002D0007829FA0A031D7829F90A031D7829F80AF2
:1002E000031D7829F80CF90CFA0CF70A0319822976
:1002F0004608CE004A08CE06CE1F8029F817862968
:10030000F8138629F701F801F901FA0183103F0873
:10031000C8003E08C7003D08C6003C08C5007A0872
:10032000CC007908CB007808CA007708C900803073
:100330008318CA06CF01D0014608CE004A08CE066F
:1003400045080319872ACD00F70049080319902AA8
:10035000CD0203192C2A031CEA294A08D300D3171B
:100360004B08D2004C08D100D0010310D30CD20CA2
:10037000D10CD00CCD0BB429CE1FC1294F14A42A07
:100380004F104D104F16483084008313B92A4F1276
:10039000CE1BD4294D1CDF29D30CD20CD10CD00C90
:1003A000F70A03199F2ADF29D31BE2290310D00D76
:1003B000D10DD20DD30DF70303199F2AD4294F175E
:1003C0004C2A4F134608CE00CE1FE829D317982A8F
:1003D000D313982A4908CD00F7004508CD024608F6
:1003E000D300D3174708D2004808D100D00103102A
:1003F000D30CD20CD10CD00CCD0BF629CE1F032A76
:10040000CF14A42ACF104D10CF164C308400831384
:10041000B92ACF12CE1B162A4D1C212AD30CD20C7E
:10042000D10CD00CF70A03199F2A212AD31B242AA6
:100430000310D00DD10DD20DD30DF70303199F2A50
:10044000162ACF174C2ACF134A08CE00CE1F2A2ACD
:10045000D317982AD313982A4A08D300D3174B08E6
:10046000D2004C08D100CE1F392AD3134F15A42A2D
:100470004F11D0014D10483084008313B92ACE1B90
:10048000622A4608CE004D1C4C2AD30CD20CD10C4B
:10049000D00CF70A03199F2AD01F5D2AD10A031D29
:1004A0005D2AD20A031D5D2AD30A031D5D2AD30CDF
:1004B000D20CD10CF70A03199F2A4F1BE129CF1B3D
:1004C000232A812A8030D306D31F6A2AA42A4A0805
:1004D000CE00772A4608CE00D308031D772AD2081B
:1004E000031D772AD108031D772AF701982AD31B09
:1004F000812A0310D00DD10DD20DD30DF70B772A21
:100500009F2ACE1F852AD317982AD313982A4908E1
:10051000F7004A08D3004B08D2004C08D100982AB3
:100520004508F7004608D3004708D2004808D10024
:100530005308F8005208F9005108FA00D72AF701C9
:10054000F801F901FA01D72AD001D109D209D3095A
:10055000D009D00A031DB22AD10A031DB22AD20A39
:100560000319D30A4F18C029CF18022A4F19382A65
:10057000672A0008D107031CC32AD20A031DC32A15
:10058000D30A03194D1484030008D207031CCB2A95
:10059000D30A03194D1484030008801F803AD3073F
:1005A00003184D144F1AC729CF1A092A3F2A7A086F
:1005B000BF007908BE007808BD007708BC00E42AB7
:1005C000BF01BE01BD01BC01B51FF12A3508FE3CCB
:1005D0000318002BFF3A031DF12A3408FD3C0318D1
:1005E000002BB51BFA2AB508031D002B3408023C6A
:1005F000031C002BBF01BE01BD01BC01AD01AC015C
:100600003F08C8003E08C7003D08C6003C08C500BA
:100610008E30F7004508F7024608F9004708F80051
:10062000F917F70803191F2B0310F908031D1B2BDB
:10063000F80803191F2BF90CF80CF70B142BC61F25
:10064000262BF809F909F80A0319F90A7908B30001
:100650007808B20030082E07C5002F08C600310800
:100660000318310FC60732084507AC004608AD0035
:1006700033080318330FAD072D08C6002C08C5003A
:100680005320C8018030C7003330C6008830C50011
:100690007A08CC007908CB007808CA007708C9002E
:1006A00078200318552B031D592B0230AD00CE3096
:1006B000AC00AD1B622BAD08031D6E2B2C08003C5B
:1006C000031C6E2B2D08C8002C08C700FF30CA0081
:1006D000C90025207908AD007808AC002D08C600B7
:1006E0002C08C5005320C8018030C7003330C60035
:1006F0008830C5007A08CC007908CB007808CA0099
:100700007708C90078200318872B031D8B2B023034
:10071000AD00CE30AC002D08A7002C08A60035088F
:10072000B7003408B600BB1F982BB91FA42B9A2B17
:10073000B91BAC2B3B083902031CAC2B031DA42BAB
:1007400038083A020318AC2B0814831608108312D9
:100750008810831688108312B91FB12BBB1FBD2BC5
:10076000B32BBB1BC52B39083B02031CC52B031D38
:10077000BD2B3A0838020318C52B08108316081041
:100780008312881483168810831218302607C50038
:100790002708C600013003180230C607C60CC50C76
:1007A000C60CC50CC60C45089500C60C460C303965
:1007B000F7001708CF39770497008A110A12352DF0
:1007C0000B08C6008B13831603178C170C1400003C
:1007D000000083120313C61B8B170318182C031772
:1007E0000C087F390313C60003170D080313C70055
:1007F00003170F080313C80046080C1EFD2B9900B1
:10080000470803178D000313480803178F000313CD
:100810000B08C9008B13831603178C170C140000E8
:10082000000083120313C91B8B17C50B182C382C1F
:1008300003170C0D0E0D7F390313C60003170D08A7
:100840000313C70003170F080313C80046080C1E44
:10085000272C9900470803178D0003134808031736
:100860008F008D0A03198F0A03100313C50BE02BA9
:100870000800CD010408CC004D10831B4D14460E1A
:10088000F038C800C807E23EC900323ECB00460837
:100890000F39C907C907CB07E93ECA00CA07CA070B
:1008A000450E0F39CA07CB07CA0DCB0DCB09CB0DAF
:1008B00045080F39CB07C80D0730C7000A30CB07F2
:1008C000CA03031C5F2CCA07C903031C632CC90796
:1008D000C803031C672CC807C703031C6B2C4730D5
:1008E0008400831307304C054C1384074B300402FB
:1008F00003194C170008F700031D862C4C1B862C8F
:100900004C1A8E2CCC19862C2030892CCC154C12EC
:100910003030F70777080C1E8B2C9900840A4C1F87
:10092000762C0800043003178D0000308F00031070
:1009300006300313C500E023103084003508C600DC
:100940003408C5003924083003178D0000308F00AB
:10095000031406300313C500E023103084003B0865
:10096000C6003A08C50039242A300C1EB52C99005F
:100970000D300C1EB92C99000A300C1EBD2C9900AC
:100980008A110A12362D03081F398300713083162D
:100990008F0090010F08031787110C300313990083
:1009A000A2309800903083129800A9010230A8006C
:1009B000AB01AA010130B900F430B8000A30C3001D
:1009C000D730C2002330C1007A30C000FF30C400ED
:1009D000831603170908C039890003131F129F12D9
:1009E000003003178800831287018801890183136F
:1009F0000313A001A1010030F80004389200FF3079
:100A000083169200831244114408831687008312D0
:100A100007110C30970083169B019C0101309D004B
:100A200003170908C039890003131F129F120130F0
:100A300003178800831203131F179F1783169F172E
:100A400083121F140030F8001F08C33978049F0078
:100A50000130C5000F289F149F182C2D83161E08E7
:100A60008312BA001E08BB00B728922C222D630007
:04400E00E12CFF3F63
:00000001FF
;PIC16F887
;CRC=9478  CREATED="21-nov.-23 01:49"
